:100000000C942A000C948E050C94B7050C94E00512
:100010000C9447000C9447000C9447000C948A07FA
:100020000C9447000C9456070C9447000C9447001E
:100030000C9447000C9447000C9447000C94470024
:100040000C9447000C9447000C9447000C94470014
:100050000C94470011241FBECFE5D4E0DEBFCDBF16
:1000600011E0A0E6B0E0E2EDF2E102C005900D92F1
:10007000A434B107D9F711E0A4E4B1E001C01D92A6
:10008000AF35B107E1F70E9412090C9467090C948F
:100090000000A0E0B0E0EFE4F0E00C943009DC01F7
:1000A0002B01FA019C91923008F439C1EB0188814F
:1000B000823008F433C1943069F4843009F02FC1E0
:1000C00011969C9111978981981709F428C1ACE089
:1000D000B1E025C1843009F421C18230A9F4923005
:1000E00009F01DC19A01AD0188E0EA010990AE0155
:1000F000E90109929E018150C1F7E20189811196BF
:100100009C918923818308C1923009F407C112961A
:100110002D903C901397EB018A819B811496AD90B2
:10012000BD90CD90DC901797EC80FD800E811F81F3
:100130009101281B390BB90137FF04C066277727C7
:10014000621B730B603271050CF061C0121613064E
:100150006CF537014801062E04C096948794779475
:1001600067940A94D2F721E030E040E050E004C008
:10017000220F331F441F551F6A95D2F7215030407C
:10018000404050402E213F2140235123211531056D
:100190004105510521F021E030E040E050E07901D7
:1001A0008A01E628F728082919293CC0232BD1F118
:1001B000260E371E35014601062E04C096948794FC
:1001C000779467940A94D2F721E030E040E050E061
:1001D00004C0220F331F441F551F6A95D2F72150C8
:1001E0003040404050402A213B214C215D212115C7
:1001F00031054105510521F021E030E040E050E0BB
:1002000059016A01A628B728C828D9280BC0821529
:1002100093052CF01C01AA24BB24650103C0EE2425
:10022000FF24870111969C91D20111968C91981709
:1002300009F445C0992339F0A80197012A193B090F
:100240004C095D0906C0A60195012E193F09400B16
:10025000510B57FD08C011823382228224833583DB
:10026000468357831DC081E08183338222828827A1
:100270009927DC01821B930BA40BB50B8483958318
:10028000A683B7830DC0220F331F441F551F24833D
:100290003583468357838281938101979383828339
:1002A0002481358146815781DA01C9010197A1096D
:1002B000B1098F5F9F4FAF4FBF4328F30BC09183AE
:1002C00033822282EA0CFB1C0C1D1D1DE482F58288
:1002D0000683178383E0808324813581468157819B
:1002E00057FF1AC0C901AA2797FDA095BA2F8170A0
:1002F0009070A070B0705695479537952795822BD2
:10030000932BA42BB52B84839583A683B7838281FB
:100310009381019693838283DF0101C0D201CD01D5
:10032000CDB7DEB7E2E10C944C09A0E2B0E0EBE916
:10033000F1E00C943C0969837A838B839C832D8341
:100340003E834F835887E9E0EE2EF12CEC0EFD1E24
:10035000CE010196B7010E94F8028E010F5E1F4F79
:10036000CE010596B8010E94F8028A8991E089279A
:100370008A8BC701B801AE01475E5F4F0E944900FA
:100380000E942302A096E6E00C945809A0E2B0E097
:10039000ECECF1E00C943C0969837A838B839C83B9
:1003A0002D833E834F835887F9E0EF2EF12CEC0E1E
:1003B000FD1ECE010196B7010E94F8028E010F5E6C
:1003C0001F4FCE010596B8010E94F802C701B8017F
:1003D000AE01475E5F4F0E9449000E942302A09633
:1003E000E6E00C945809A8E1B0E0E9EFF1E00C94E4
:1003F0003C0969837A838B839C832D833E834F835F
:10040000588789E0E82EF12CEC0EFD1ECE010196F6
:10041000B7010E94F8028E010F5E1F4FCE010596B4
:10042000B8010E94F8028985823040F089898230C3
:1004300028F0C701B8010E94700301C08FEF6896D1
:10044000E6E00C945809DF92EF92FF920F931F930E
:10045000FC01E480F58006811781D18080818230A3
:1004600048F480E090E0A0E1B0E0E82AF92A0A2B05
:100470001B2BA5C0843009F49FC0823021F4EE24E8
:10048000FF24870105C0E114F1040105110519F4E9
:10049000E0E0F0E096C0628173819FEF62387907F7
:1004A0000CF05BC022E83FEF261B370B2A313105E9
:1004B0002CF020E030E040E050E02AC0B801A70175
:1004C000022E04C076956795579547950A94D2F702
:1004D00081E090E0A0E0B0E004C0880F991FAA1F5F
:1004E000BB1F2A95D2F70197A109B1098E219F213F
:1004F000A023B1230097A105B10521F081E090E090
:10050000A0E0B0E09A01AB01282B392B4A2B5B2BE2
:10051000DA01C9018F779070A070B07080349105B6
:10052000A105B10539F427FF09C0205C3F4F4F4FAB
:100530005F4F04C0215C3F4F4F4F5F4FE0E0F0E062
:100540002030A0E03A07A0E04A07A0E45A0710F0E4
:10055000E1E0F0E079018A0127C06038710564F5B7
:10056000FB01E158FF4FD801C7018F779070A07051
:10057000B07080349105A105B10539F4E7FE0DC0D6
:1005800080E490E0A0E0B0E004C08FE390E0A0E061
:10059000B0E0E80EF91E0A1F1B1F17FF05C01695D5
:1005A0000795F794E794319687E016950795F794A9
:1005B000E7948A95D1F705C0EE24FF248701EFEF79
:1005C000F0E06E2F679566276795902F9F77D794F9
:1005D000DD24D7948E2F8695492F462B582F5D29E1
:1005E000B701CA011F910F91FF90EF90DF9008951E
:1005F000FC01DB01408151812281622F6F7770E025
:10060000221F2227221F9381892F880F822B282FB8
:1006100030E0991F9927991F11969C9311972115E6
:100620003105A9F5411551056105710511F482E007
:1006300037C082E89FEF13969C938E9312979A018E
:10064000AB0167E0220F331F441F551F6A95D1F796
:1006500083E08C930DC0220F331F441F551F129649
:100660008D919C911397019713969C938E9312975B
:10067000203080E0380780E0480780E4580758F3CE
:1006800014962D933D934D935C93179708952F3FA8
:10069000310579F4411551056105710519F484E0BE
:1006A0008C93089564FF03C081E08C9312C01C9268
:1006B00010C02F57304013963C932E93129783E02F
:1006C0008C9387E0440F551F661F771F8A95D1F7DB
:1006D000706414964D935D936D937C931797089572
:1006E0001F93DC01FB019C91923008F447C080818C
:1006F000823008F443C0943051F411961C91843038
:1007000099F58181682F70E0611B71093FC08430C9
:1007100021F0923031F48230B9F18181882389F15E
:100720002DC011961C9111978230F1F0818118171C
:10073000D9F412962D913C9113978281938182175F
:10074000930794F028173907BCF014968D919D916A
:100750000D90BC91A02D24813581468157812817A9
:1007600039074A075B0718F4112341F00AC08217C2
:100770009307A407B50740F4112319F061E070E076
:1007800005C06FEF7FEF02C060E070E0CB011F910A
:100790000895843008F075C0683008F072C04130A8
:1007A000B1F5813099F0813030F08230D1F0833072
:1007B00009F067C021C02AB381E090E002C0880F31
:1007C000991F6A95E2F7282B2ABB089527B381E089
:1007D00090E002C0880F991F6A95E2F7282B27BB8B
:1007E000089524B381E090E002C0880F991F6A95B4
:1007F000E2F7282B24BB089521B381E090E002C0EA
:10080000880F991F6A95E2F7282B21BB089544238E
:10081000C1F5813099F0813028F08230D9F08330F1
:1008200081F524C02AB381E090E002C0880F991FAF
:100830006A95E2F7809582238ABB089527B381E009
:1008400090E002C0880F991F6A95E2F78095822395
:1008500087BB089524B381E090E002C0880F991F00
:100860006A95E2F78095822384BB089521B381E0E5
:1008700090E002C0880F991F6A95E2F78095822365
:1008800081BB0895843008F075C0683008F072C0EC
:100890004130B1F5813099F0813030F08230D1F0C3
:1008A000833009F067C021C02BB381E090E002C023
:1008B000880F991F6A95E2F7282B2BBB089528B360
:1008C00081E090E002C0880F991F6A95E2F7282B1B
:1008D00028BB089525B381E090E002C0880F991FDE
:1008E0006A95E2F7282B25BB089522B381E090E0BA
:1008F00002C0880F991F6A95E2F7282B22BB089542
:100900004423C1F5813099F0813028F08230D9F04C
:10091000833081F524C02BB381E090E002C0880FC2
:10092000991F6A95E2F7809582238BBB089528B3BF
:1009300081E090E002C0880F991F6A95E2F78095E8
:10094000822388BB089525B381E090E002C0880F20
:10095000991F6A95E2F78095822385BB089522B39B
:1009600081E090E002C0880F991F6A95E2F78095B8
:10097000822382BB08958430D8F46830C8F4813073
:1009800051F0813030F0823041F0833041F080E02E
:10099000089589B305C086B303C083B301C080B393
:1009A00090E002C0959587956A95E2F78170089569
:1009B0008FEF0895843010F08FEF0895882359F059
:1009C000823029F180E020E030E040E050E060E05B
:1009D00070E0E0E03AC0E9B3E17079B37695717008
:1009E00069B366956695617059B356955695569557
:1009F000517049B34295417039B332953695317093
:100A000029B3229526952695217089B31BC0E3B39F
:100A1000E17073B37695717063B366956695617096
:100A200053B3569556955695517043B342954170C0
:100A300033B332953695317023B32295269526959A
:100A4000217083B3881F8827881F90E0880F991F23
:100A5000820F911D880F991F830F911D880F991F79
:100A6000840F911D880F991F850F911D880F991F65
:100A7000860F911D880F991F870F911D880F991F51
:100A80008E0F0895813049F0813028F0823039F09E
:100A9000833041F406C06ABB089567BB089564BB08
:100AA000089561BB0895813049F0813028F082308B
:100AB00039F0833041F406C06BBB089568BB0895DC
:100AC00065BB089562BB0895009711F481E0089515
:100AD000909345018093440180E00895009711F4BC
:100AE00081E00895909347018093460180E0089546
:100AF000009711F481E00895909349018093480193
:100B000080E00895813021F48BB780648BBF089515
:100B1000882319F48BB78F7B8BBF08951F920F9298
:100B20000FB60F9211242F933F934F935F936F93C0
:100B30007F938F939F93AF93BF93EF93FF93E09136
:100B40004401F0914501309709F00995FF91EF912B
:100B5000BF91AF919F918F917F916F915F914F91D5
:100B60003F912F910F900FBE0F901F9018951F92DD
:100B70000F920FB60F9211242F933F934F935F93D1
:100B80006F937F938F939F93AF93BF93EF93FF9355
:100B9000E0914601F0914701309709F00995FF91E6
:100BA000EF91BF91AF919F918F917F916F915F91E5
:100BB0004F913F912F910F900FBE0F901F9018955E
:100BC0001F920F920FB60F9211242F933F934F93C2
:100BD0005F936F937F938F939F93AF93BF93EF93A5
:100BE000FF93E0914801F0914901309709F0099590
:100BF000FF91EF91BF91AF919F918F917F916F91F5
:100C00005F914F913F912F910F900FBE0F901F90CA
:100C100018951F93182F81E062E040E00E94C903FD
:100C200081E062E041E00E9442048BB780628BBFAA
:100C30008FB780688FBF113021F0123029F081E02A
:100C400007C084B7806402C084B78F7B84BF80E014
:100C50001F9108951F93182F83E063E040E00E94E6
:100C6000C90383E063E041E00E9442048BB78068DF
:100C70008BBF8FB780688FBF113059F0113030F0C3
:100C8000123051F0133071F081E013C085B78E7FC0
:100C90000BC085B7816002C085B78E7F85BF85B7E1
:100CA000826005C085B7816085BF85B78D7F85BFB0
:100CB00080E01F9108951F93182F83E062E040E0C9
:100CC0000E94C90383E062E041E00E9442048BB7C6
:100CD00080648BBF8FB780688FBF113059F011309F
:100CE00030F0123051F0133071F081E013C085B74D
:100CF0008E7F0BC085B7816002C085B78E7F85BFB0
:100D000085B7826005C085B7816085BF85B78D7F57
:100D100085BF80E01F9108958FB780688FBF0895C9
:100D20008FB78F778FBF08951F93182F83E060E0F0
:100D300041E00E94420483E064E040E00E944204FB
:100D400082E0612F0E94530583E066E041E00E944B
:100D5000420480EA9FE00197F1F783E066E040E01B
:100D60000E9442041F9108951F93CF93DF93EC01DB
:100D700010E003C00E9494061F5FFE01E10FF11D09
:100D800080818823B9F7DF91CF911F9108951F9338
:100D9000182F83E060E040E00E94420483E064E0BA
:100DA00040E00E94420482E0612F0E94530583E0EC
:100DB00066E041E00E94420480EA9FE00197F1F77B
:100DC00083E066E040E00E9442041F91089581E0C4
:100DD0000E94C7060895843080F4603170F488233F
:100DE00049F0813011F4605405C0823011F46C5622
:100DF00001C06C52862F0E94C7060895DF92EF92C1
:100E0000FF920F931F93CF93DF938C01F62EE42E66
:100E1000D22E862F880F880F880F805C0E94C7060D
:100E2000C0E0D0E0F801EC0FFD1F80810E94940625
:100E30002196C830D105B1F78E2D6D2D0E94EB069D
:100E40008F2D0E949406DF91CF911F910F91FF90FB
:100E5000EF90DF90089582E06FEF0E94420583E0FB
:100E600060E041E00E94C90383E064E041E00E9449
:100E7000C90383E066E041E00E94C90380E69AEE80
:100E80000197F1F788E30E94C7068CE00E94C7062D
:100E900081E00E94C7060895009711F481E008954B
:100EA00090934B0180934A0180E008956091520134
:100EB00070915301809154019091550120E030E0F0
:100EC00040E85FE30E94C6016093520170935301B2
:100ED0008093540190935501E0914A01F0914B01A8
:100EE000309709F0099580E090E0A0E0B0E08093B1
:100EF000520190935301A0935401B093550108956A
:100F0000009711F481E0089590934D0180934C0176
:100F100080E0089560914E0170914F0180915001E1
:100F20009091510120E030E040E85FE30E94C6016B
:100F300060934E0170934F01809350019093510143
:100F400020E030E64AEE53E40E94F30188239CF04F
:100F5000E0914A01F0914B01309709F0099580E04A
:100F600090E0A0E0B0E080934E0190934F01A093F9
:100F70005001B093510108958ABD08958CBD089524
:100F8000813039F48FB580648FBD8FB58F778FBD79
:100F90000895882331F48FB58F7B8FBD8FB58F7700
:100FA0008FBD08950E948C068FB581608FBD8FB56F
:100FB00082608FBD8EB588608EBD8EB580618EBD1E
:100FC0008FB58F7B8FBD8FB58F778FBD8EB58160CD
:100FD0008EBD8EB58D7F8EBD8EB58B7F8EBD0895F7
:100FE00091B5987F91BD91B5982B91BD089581B52C
:100FF000886081BD089581B5886181BD11BC089567
:1010000080915601882349F483E067E041E00E9423
:10101000420481E080935601089583E067E040E058
:101020000E9442041092560108951F93182F8EE1DA
:1010300090E00E94BC07812F0E94C00780ED97E0DE
:101040000197F1F780E00E94C0071F910895209159
:10105000570190E0FC01EE0FFF1FE80FF91FEE0FA4
:10106000FF1FEE0FFF1FE20FF11DEC5EFE4F8081B0
:101070000E941508809157018F5F809357018C3033
:1010800011F5109257010E94900683E062E00E94E1
:10109000BB048130D1F38CEB92E00197F1F781E052
:1010A00060E00E94BB04813061F480915801E82F18
:1010B000F0E0E85AFE4F90E08081882309F491E047
:1010C000908310925801089583E062E00E94BB046F
:1010D0008823D1F380915801853078F4823031F043
:1010E000843041F0813049F481E001C082E00E9407
:1010F0002708089583E00E94270808958CE692E06F
:1011000028EC30E0F9013197F1F70197D9F70E9407
:10111000E70680915901882319F480E690E002C027
:1011200083E790E00E94B40681E060E00E94EB0655
:1011300080915A01882319F485E890E002C088E97B
:1011400090E00E94B40682E060E00E94EB0680918D
:101150005C01882319F48AEA90E002C08DEB90E0EC
:101160000E94B40683E060E00E94EB068FEC90E002
:101170000E94B40680E00E94DA0480935D01882317
:10118000C9F3823021F0843029F0813029F4809332
:10119000580108958093580108950E94E70680E061
:1011A00060E00E94EB0687ED90E00E94B40681E0CB
:1011B00060E00E94EB0688EE90E00E94B40682E0B8
:1011C00060E00E94EB0680EF90E00E94B40680E0B1
:1011D0000E94DA0480935E018823C9F3813019F0FC
:1011E0008230F9F40BC00E947E0883E062E00E9426
:1011F000BB048130D1F30E948C0608950E94E7065B
:1012000088EF90E00E94B40681E060E00E94EB0667
:1012100080E091E00E94B40680E00E94DA04813010
:10122000D9F708950E942B0780E060E00E944205F4
:1012300083E065E041E00E94C90381E060E040E0B6
:101240000E94C90384E698E00E94640581E00E9440
:101250005B060E94D2070E9490060E94CD08FDCF37
:101260002F923F924F925F926F927F928F929F92B6
:10127000AF92BF92CF92DF92EF92FF920F931F93A4
:10128000CF93DF93CDB7DEB7CA1BDB0B0FB6F89455
:10129000DEBF0FBECDBF09942A88398848885F8495
:1012A0006E847D848C849B84AA84B984C884DF8006
:1012B000EE80FD800C811B81AA81B981CE0FD11DEA
:1012C0000FB6F894DEBF0FBECDBFED010895F894C0
:0212D000FFCF4E
:1012D20020312D6465766963652031206973206F42
:1012E20066660020312D6465766963652031206968
:1012F20073206F6E0020322D64657669636520323B
:10130200206973206F66660020322D6465766963FA
:10131200652032206973206F6E0020332D6465765C
:101322006963652033206973206F66660020332D60
:101332006465766963652033206973206F6E0020CF
:10134200342D6261636B002057656C636F6D65209D
:10135200686F6D65203A2000312D6D656E75200035
:10136200322D6578697420002045786974656400BF
:10137200203120746F2073746172740000000000C9
:10138200000000000100000000000000000000005A
:101392000101010100010000010000010101010140
:1013A2000000010000010000010101010000000134
:0413B2000101000035
:00000001FF
