:100000000C942A000C94AD050C94D6050C94FF05B5
:100010000C9447000C9447000C9447000C94FD0688
:100020000C9447000C94C9060C9477070C949E0717
:100030000C9447000C9447000C9447000C94470024
:100040000C9447000C9447000C9447000C94470014
:100050000C94470011241FBECFE5D8E0DEBFCDBF12
:1000600010E0A8E6B0E001C01D92A439B107E1F7A5
:1000700010E0A0E6B0E0EEE6F4E102C005900D92DB
:10008000A836B107D9F70E94D4090C94350A0C940C
:100090000000A0E0B0E0EFE4F0E00C94FE09DC0129
:1000A0002B01FA019C91923008F439C1EB0188814F
:1000B000823008F433C1943069F4843009F02FC1E0
:1000C00011969C9111978981981709F428C1A0E68F
:1000D000B0E025C1843009F421C18230A9F4923006
:1000E00009F01DC19A01AD0188E0EA010990AE0155
:1000F000E90109929E018150C1F7E20189811196BF
:100100009C918923818308C1923009F407C112961A
:100110002D903C901397EB018A819B811496AD90B2
:10012000BD90CD90DC901797EC80FD800E811F81F3
:100130009101281B390BB90137FF04C066277727C7
:10014000621B730B603271050CF061C0121613064E
:100150006CF537014801062E04C096948794779475
:1001600067940A94D2F721E030E040E050E004C008
:10017000220F331F441F551F6A95D2F7215030407C
:10018000404050402E213F2140235123211531056D
:100190004105510521F021E030E040E050E07901D7
:1001A0008A01E628F728082919293CC0232BD1F118
:1001B000260E371E35014601062E04C096948794FC
:1001C000779467940A94D2F721E030E040E050E061
:1001D00004C0220F331F441F551F6A95D2F72150C8
:1001E0003040404050402A213B214C215D212115C7
:1001F00031054105510521F021E030E040E050E0BB
:1002000059016A01A628B728C828D9280BC0821529
:1002100093052CF01C01AA24BB24650103C0EE2425
:10022000FF24870111969C91D20111968C91981709
:1002300009F445C0992339F0A80197012A193B090F
:100240004C095D0906C0A60195012E193F09400B16
:10025000510B57FD08C011823382228224833583DB
:10026000468357831DC081E08183338222828827A1
:100270009927DC01821B930BA40BB50B8483958318
:10028000A683B7830DC0220F331F441F551F24833D
:100290003583468357838281938101979383828339
:1002A0002481358146815781DA01C9010197A1096D
:1002B000B1098F5F9F4FAF4FBF4328F30BC09183AE
:1002C00033822282EA0CFB1C0C1D1D1DE482F58288
:1002D0000683178383E0808324813581468157819B
:1002E00057FF1AC0C901AA2797FDA095BA2F8170A0
:1002F0009070A070B0705695479537952795822BD2
:10030000932BA42BB52B84839583A683B7838281FB
:100310009381019693838283DF0101C0D201CD01D5
:10032000CDB7DEB7E2E10C941A0AA0E2B0E0EBE947
:10033000F1E00C940A0A69837A838B839C832D8372
:100340003E834F835887E9E0EE2EF12CEC0EFD1E24
:10035000CE010196B7010E9428038E010F5E1F4F48
:10036000CE010596B8010E9428038A8991E0892769
:100370008A8BC701B801AE01475E5F4F0E944900FA
:100380000E945302A096E6E00C94260AA0E2B0E098
:10039000ECECF1E00C940A0A69837A838B839C83EA
:1003A0002D833E834F835887F9E0EF2EF12CEC0E1E
:1003B000FD1ECE010196B7010E9428038E010F5E3B
:1003C0001F4FCE010596B8010E942803C701B8014E
:1003D000AE01475E5F4F0E9449000E945302A09603
:1003E000E6E00C94260AA8E1B0E0E9EFF1E00C9415
:1003F0000A0A69837A838B839C832D833E834F8390
:10040000588789E0E82EF12CEC0EFD1ECE010196F6
:10041000B7010E9428038E010F5E1F4FCE01059683
:10042000B8010E9428038985823040F08989823092
:1004300028F0C701B8010E94A00301C081E06896BE
:10044000E6E00C94260AA8E1B0E0E9E2F2E00C94C0
:100450000A0A69837A838B839C832D833E834F832F
:10046000588789E0E82EF12CEC0EFD1ECE01019696
:10047000B7010E9428038E010F5E1F4FCE01059623
:10048000B8010E9428038985823040F08989823032
:1004900028F0C701B8010E94A00301C08FEF689641
:1004A000E6E00C94260ADF92EF92FF920F931F93DF
:1004B000FC01E480F58006811781D1808081823043
:1004C00048F480E090E0A0E1B0E0E82AF92A0A2BA5
:1004D0001B2BA5C0843009F49FC0823021F4EE2488
:1004E000FF24870105C0E114F1040105110519F489
:1004F000E0E0F0E096C0628173819FEF6238790797
:100500000CF05BC022E83FEF261B370B2A31310588
:100510002CF020E030E040E050E02AC0B801A70114
:10052000022E04C076956795579547950A94D2F7A1
:1005300081E090E0A0E0B0E004C0880F991FAA1FFE
:10054000BB1F2A95D2F70197A109B1098E219F21DE
:10055000A023B1230097A105B10521F081E090E02F
:10056000A0E0B0E09A01AB01282B392B4A2B5B2B82
:10057000DA01C9018F779070A070B0708034910556
:10058000A105B10539F427FF09C0205C3F4F4F4F4B
:100590005F4F04C0215C3F4F4F4F5F4FE0E0F0E002
:1005A0002030A0E03A07A0E04A07A0E45A0710F084
:1005B000E1E0F0E079018A0127C06038710564F557
:1005C000FB01E158FF4FD801C7018F779070A070F1
:1005D000B07080349105A105B10539F4E7FE0DC076
:1005E00080E490E0A0E0B0E004C08FE390E0A0E001
:1005F000B0E0E80EF91E0A1F1B1F17FF05C0169575
:100600000795F794E794319687E016950795F79448
:10061000E7948A95D1F705C0EE24FF248701EFEF18
:10062000F0E06E2F679566276795902F9F77D79498
:10063000DD24D7948E2F8695492F462B582F5D2980
:10064000B701CA011F910F91FF90EF90DF900895BD
:10065000FC01DB01408151812281622F6F7770E0C4
:10066000221F2227221F9381892F880F822B282F58
:1006700030E0991F9927991F11969C931197211586
:100680003105A9F5411551056105710511F482E0A7
:1006900037C082E89FEF13969C938E9312979A012E
:1006A000AB0167E0220F331F441F551F6A95D1F736
:1006B00083E08C930DC0220F331F441F551F1296E9
:1006C0008D919C911397019713969C938E931297FB
:1006D000203080E0380780E0480780E4580758F36E
:1006E00014962D933D934D935C93179708952F3F48
:1006F000310579F4411551056105710519F484E05E
:100700008C93089564FF03C081E08C9312C01C9207
:1007100010C02F57304013963C932E93129783E0CE
:100720008C9387E0440F551F661F771F8A95D1F77A
:10073000706414964D935D936D937C931797089511
:100740001F93DC01FB019C91923008F447C080812B
:10075000823008F443C0943051F411961C918430D7
:1007600099F58181682F70E0611B71093FC0843069
:1007700021F0923031F48230B9F18181882389F1FE
:100780002DC011961C9111978230F1F081811817BC
:10079000D9F412962D913C911397828193818217FF
:1007A000930794F028173907BCF014968D919D910A
:1007B0000D90BC91A02D2481358146815781281749
:1007C00039074A075B0718F4112341F00AC0821762
:1007D0009307A407B50740F4112319F061E070E016
:1007E00005C06FEF7FEF02C060E070E0CB011F91AA
:1007F00008958430D0F46830C0F44130B9F0442317
:10080000A1F4813009F44AC0813028F18230D1F15D
:10081000833059F421B381E090E002C0880F991F22
:100820006A95E2F78095822381BB0895813009F4AF
:1008300041C08130E0F0823009F447C08330A9F72D
:1008400021B381E090E002C0880F991F6A95E2F71A
:10085000282B21BB08952AB381E090E002C0880FC5
:10086000991F6A95E2F7809582238ABB08952AB37F
:1008700081E090E002C0880F991F6A95E2F7282B6B
:100880002ABB089524B381E090E002C0880F991F2D
:100890006A95E2F78095822384BB089527B381E0AF
:1008A00090E002C0880F991F6A95E2F78095822335
:1008B00087BB089527B381E090E002C0880F991F9D
:1008C0006A95E2F7282B27BB089524B381E090E0D6
:1008D00002C0880F991F6A95E2F7282B24BB089560
:1008E0008430D0F46830C0F44130B9F04423A1F42E
:1008F000813009F44AC0813028F18230D1F183304F
:1009000059F422B381E090E002C0880F991F6A95E4
:10091000E2F78095822382BB0895813009F441C0BB
:100920008130E0F0823009F447C08330A9F722B368
:1009300081E090E002C0880F991F6A95E2F7282BAA
:1009400022BB08952BB381E090E002C0880F991F6D
:100950006A95E2F7809582238BBB08952BB381E0E3
:1009600090E002C0880F991F6A95E2F7282B2BBBF5
:10097000089525B381E090E002C0880F991F6A9521
:10098000E2F78095822385BB089528B381E090E04B
:1009900002C0880F991F6A95E2F78095822388BB71
:1009A000089528B381E090E002C0880F991F6A95EE
:1009B000E2F7282B28BB089525B381E090E002C020
:1009C000880F991F6A95E2F7282B25BB089584307C
:1009D00060F4683050F4813099F0813040F082301A
:1009E00009F18330B1F080E008958FEF089589B365
:1009F00090E002C0959587956A95E2F78170089519
:100A000086B390E002C0959587956A95E2F781706C
:100A1000089580B390E002C0959587956A95E2F7B6
:100A20008170089583B390E002C0959587956A958B
:100A3000E2F781700895843008F043C08823E1F51F
:100A4000E9B379B369B359B349B339B329B389B3B6
:100A5000669566956170429541702295269526951A
:100A60002170881F8827881F90E0880F991F820FA8
:100A7000911D880F991F329536953170830F911D06
:100A8000880F991F840F911D880F991F56955695B1
:100A900056955170850F911D880F991F860F911DD6
:100AA000880F991F76957170870F911D880F991F78
:100AB000E170E80F8E2F0895823031F0E0E08E2F44
:100AC0000895EFEF8E2F0895E3B373B363B353B379
:100AD00043B333B323B383B3BBCF813059F08130F9
:100AE00028F0823049F0833019F008956ABB0895E8
:100AF00061BB089567BB089564BB0895813059F0C8
:100B0000813028F0823049F0833019F008956BBBB2
:100B1000089562BB089568BB089565BB089500976A
:100B200031F0909369008093680080E0089581E03F
:100B30000895009731F090936B0080936A0080E0F5
:100B4000089581E00895009731F090936D008093AF
:100B50006C0080E0089581E008951F920F920FB617
:100B60000F9211242F933F934F935F936F937F9333
:100B70008F939F93AF93BF93EF93FF93E0916800A0
:100B8000F0916900309709F00995FF91EF91BF91BD
:100B9000AF919F918F917F916F915F914F913F9115
:100BA0002F910F900FBE0F901F9018951F920F92CC
:100BB0000FB60F9211242F933F934F935F936F9330
:100BC0007F938F939F93AF93BF93EF93FF93E091A6
:100BD0006A00F0916B00309709F00995FF91EF9151
:100BE000BF91AF919F918F917F916F915F914F9145
:100BF0003F912F910F900FBE0F901F9018951F924D
:100C00000F920FB60F9211242F933F934F935F9340
:100C10006F937F938F939F93AF93BF93EF93FF93C4
:100C2000E0916C00F0916D00309709F00995FF910B
:100C3000EF91BF91AF919F918F917F916F915F9154
:100C40004F913F912F910F900FBE0F901F901895CD
:100C50001F93182F81E062E040E00E94F90381E0D9
:100C600062E041E00E9470048BB780628BBF8FB757
:100C700080688FBF113029F0123049F081E01F9158
:100C8000089584B7806484BF80E01F91089584B77D
:100C90008F7B84BF80E01F9108951F93182F83E0FE
:100CA00063E040E00E94F90383E063E041E00E94DA
:100CB00070048BB780688BBF8FB780688FBF11308F
:100CC000A9F0113048F485B78E7F85BF85B78D7F39
:100CD00085BF80E01F910895123089F0133019F01C
:100CE00081E01F91089585B78160EFCF85B781605E
:100CF00085BF85B7826085BF80E01F91089585B765
:100D00008E7FF6CF1F93182F83E062E040E00E94B1
:100D1000F90383E062E041E00E9470048BB78064D5
:100D20008BBF8FB780688FBF1130A9F0113048F4A6
:100D300085B78E7F85BF85B78D7F85BF80E01F918A
:100D40000895123089F0133019F081E01F91089551
:100D500085B78160EFCF85B7816085BF85B7826039
:100D600085BF80E01F91089585B78E7FF6CF8FB73E
:100D700080688FBF08958FB78F778FBF08950097D2
:100D800031F090936F0080936E0080E0089581E0D1
:100D9000089560917600709177008091780090912D
:100DA000790020E030E040E85FE30E94C6016093F4
:100DB0007600709377008093780090937900E091AB
:100DC0006E00F0916F00309709F0099580E090E097
:100DD000A0E0B0E08093760090937700A093780035
:100DE000B09379000895009731F09093710080934B
:100DF000700080E0089581E0089560917200709124
:100E00007300809174009091750020E030E040E81C
:100E10005FE30E94C6016093720070937300809339
:100E200074009093750020E030E64AEE53E40E948F
:100E3000230288239CF0E0916E00F0916F003097C0
:100E400009F0099580E090E0A0E0B0E080937200A6
:100E500090937300A0937400B093750008958ABDB9
:100E600008958CBD0895813049F0882331F48FB501
:100E70008F7B8FBD8FB58F778FBD08958FB58064C1
:100E80008FBD8FB58F778FBD08950E94B7068FB540
:100E900081608FBD8FB582608FBD8EB588608EBD3D
:100EA0008EB580618EBD8FB58F7B8FBD8FB58F77EF
:100EB0008FBD8EB581608EBD8EB58D7F8EBD8EB59A
:100EC0008B7F8EBD0895009731F090937B008093C7
:100ED0007A0080E0089581E00895009731F09093C2
:100EE0007D0080937C0080E0089581E008951F924A
:100EF0000F920FB60F9211242F933F934F935F934E
:100F00006F937F938F939F93AF93BF93EF93FF93D1
:100F1000E0917C00F0917D000995FF91EF91BF91E8
:100F2000AF919F918F917F916F915F914F913F9181
:100F30002F910F900FBE0F901F9018951F920F9238
:100F40000FB60F9211242F933F934F935F936F939C
:100F50007F938F939F93AF93BF93EF93FF93609192
:100F60007E0070917F00809180009091810020E050
:100F700030E040E85FE30E94C60160937E0070931A
:100F80007F00809380009093810020E030E042E871
:100F900052E40E94F301882399F4E0917A00F091E1
:100FA0007B00309709F0099580E090E0A0E0B0E088
:100FB00080937E0090937F00A0938000B093810087
:100FC000FF91EF91BF91AF919F918F917F916F9121
:100FD0005F914F913F912F910F900FBE0F901F90F7
:100FE00018958CBF089582BF089583B78F7E83BF05
:100FF00083B78F7D83BF089583B78F7E83BF83B709
:10100000806283BF08958CBF83B7806183BF83B73D
:10101000806283BF83B78F7E83BF83B78F7D83BF9B
:1010200008958CBF83B78F7E83BF83B7806283BFF1
:1010300089B7816089BF88B7816088BF0895813092
:1010400049F0882331F483B78F7E83BF83B78F7DC8
:1010500083BF089583B78F7E83BF83B7806283BFCA
:1010600082E08A95F1F783B78F7E83BF83B78F7D48
:1010700083BF0895813049F0882331F483B78F7E90
:1010800083BF83B78F7D83BF089583B78F7E83BF70
:1010900083B7806283BF08950E94B70683B78064D8
:1010A00083BF83B7886083BF83B78F7E83BF83B7D7
:1010B0008F7D83BF83B7816083BF83B7826083BF27
:1010C00083B7846083BF089580918200882341F0B4
:1010D00081E067E040E00E94700410928200089571
:1010E00081E067E041E00E94700481E0809382002B
:1010F000089582E060E0409183000E94700482E0E5
:1011000061E0409184000E94700482E062E04091BE
:1011100085000E94700482E063E0409186000E9496
:10112000700482E064E0409187000E94700482E0D5
:1011300065E0409188000E94700482E066E0409182
:1011400089000E94700482E067E040918A000E945A
:10115000700481E060E040918B000E94700481E0A7
:1011600061E040918C000E94700481E062E0409157
:101170008D000E94700481E063E040918E000E9427
:10118000700480918F00882309F1813041F1109221
:101190009000109291001092920010928300109291
:1011A00084001092850010928600109287001092A1
:1011B00088001092890010928A0010928B00109281
:1011C0008C0010928D0010928E00089581E064E0F2
:1011D00041E00E94700481E080938F00D8CF64E0EA
:1011E00040E00E94700410928F00D1CF1F93182FFF
:1011F0008EE190E00E942F07812F0E94330780ED3F
:1012000097E00197F1F780E00E9433071F9108955E
:10121000CF93DF9384EF91E00197F1F783E067E0EC
:1012200041E00E94700488EC90E00197F1F783E0C0
:1012300067E040E00E94700480919000C82FD0E0E9
:1012400083E060E00E94E704CD57DF4F8883309150
:101250009000E32FF0E0ED57FF4F8081813059F08F
:10126000809192008430A1F0109292001092900030
:10127000DF91CF91089580919200843098F78F5F2D
:10128000809392003F5F30939000DF91CF9108955B
:101290003F5F3093900080918A0090E0880F991F03
:1012A00020918900820F911D880F991F209188003D
:1012B000820F911D880F991F20918700280F20937E
:1012C00093003C30A8F280E00E941B0590919300AF
:1012D000891709F45DC0809190008C3048F282E05B
:1012E00060E040E00E94700482E061E040E00E9423
:1012F000700482E062E040E00E94700482E063E0FB
:1013000040E00E94700482E064E040E00E947004CB
:1013100082E065E040E00E94700482E066E040E028
:101320000E94700482E067E040E00E94700481E067
:1013300060E040E00E94700481E061E040E00E94D3
:10134000700481E062E040E00E94700481E063E0AC
:1013500040E00E947004109290001092920010924F
:1013600083001092840010928500109286001092E3
:101370008700109288001092890010928A001092C3
:101380008B0010928C0010928D0010928E0070CF06
:101390000E94790883E062E00E94E7048130D1F383
:1013A00081E00E94F60864CF83E061E041E00E94A2
:1013B000F90380E060E00E946D0583E060E040E0BA
:1013C0000E94F90382E06FEF0E946D0581E06FE9F2
:1013D0000E946D0583E065E041E00E94F90388E02A
:1013E00099E00E948F0581E00E9482060E944507D5
:1013F00083E067E041E00E94F903FFCF2F923F9224
:101400004F925F926F927F928F929F92AF92BF9214
:10141000CF92DF92EF92FF920F931F93CF93DF93C0
:10142000CDB7DEB7CA1BDB0B0FB6F894DEBF0FBE1D
:10143000CDBF09942A88398848885F846E847D846A
:101440008C849B84AA84B984C884DF80EE80FD806C
:101450000C811B81AA81B981CE0FD11D0FB6F894E2
:0E146000DEBF0FBECDBFED010895F894FFCFA3
:08146E00000000000000000076
:00000001FF
